S01700004D795F526566726967657261746F722E73726563FC
S113000072C000008EC000008CC000008AC00000D6
S113001088C0000086C0000084C0000082C00000C8
S113002080C000007EC000007CC000007AC00000D8
S113003078C0000076C0000074C0000072C00000E8
S113004070C000006EC000006CC000006AC00000F8
S113005068C0000066C0000064C0000062C0000008
S113006060C000005EC000005CC000005AC0000018
S113007058C0000056C0000054C0000052C0000028
S113008050C000004EC000004CC00000080000003A
S1130090BE922449123EABAAAA2ABECDCCCC4C3E79
S11300A000000080BEABAAAAAA3E00000000BF0068
S11300B00000803F0000000000084178D3BB438764
S11300C0D1133D190E3CC3BD4282AD2B3E68EC8278
S11300D076BED98FE1A93E4C80EFFFBE01C4FF7FFD
S11300E03F000000000011241FBECFEFD0E1DEBFAF
S11300F0CDBF11E0A0E0B1E0E6E4F6E100E00BBF23
S113010002C007900D92AA32B107D9F721E0AAE202
S1130110B1E001C01D92AE32B207E1F771D10C9487
S1130120210B6ECFEFE9FFE03197F1F700C000003B
S113013091E093B9F5E0FA95F1F7000095E093B9F1
S113014095E09A95F1F7000088BBE5E0EA95F1F7B0
S1130150000082E083B908952FEF36E791E0215043
S113016030409040E1F700C0000013B825E02A9524
S1130170F1F7000094E093B935E03A95F1F7000007
S113018088BB85E08A95F1F7000083E083B9089580
S1130190F8942FEF80E792E0215080409040E1F7FF
S11301A000C0000088E3D8DF25ED2A95F1F70000B0
S11301B08CE0D2DF85ED8A95F1F7000081E0CCDF99
S11301C08FE39FE10197F1F700C0000086E0C4DFF0
S11301D078940895EF92FF920F931F93CF93DF9338
S11301E07B01082F0068802FB7DFF7018081882307
S11301F089F0E70110E00E191F09CE01800F911F4D
S11302008039910511F480ECA7DF89918BDF888117
S11302108111F3CFDF91CF911F910F91FF90EF9058
S113022008958F929F92AF92BF92CF92DF92EF92F6
S1130230FF920F931F93CF93DF93CDB7DEB76A97E7
S11302400FB6F894DEBF0FBECDBF19821A821B828F
S11302501C82FE01769625E0DF011D922A95E9F7BE
S1130260719721E1DF011D922A95E9F75C01CE0126
S113027001967C018F016C01D5016D917D918D9169
S11302809D915D0141D5F60161936F01E017F1077E
S113029099F767010F2EF0E08F2EF1E09F2EF02DDD
S11302A05E01F6E1AF0EB11CD6018D916D01282FD0
S11302B0082E000C330B3F938F939F928F92BF9223
S11302C0AF92E4D60F900F900F900F900F900F9075
S11302D0C016D10649F78A81282F082E000C330B4B
S11302E03F938F938981282F082E000C330B3F9363
S11302F08F9383E091E09F938F936E01B5E0CB0ED3
S1130300D11CDF92CF92C2D6B60180E063DF81E1D7
S1130310F60111928A95E9F70FB6F894DEBF0FBE85
S1130320CDBF0F2EF0E0AF2EF1E0BF2EF02D6E0109
S113033096E1C90ED11CD7018D917D01282F082E7D
S1130340000C330B3F938F93BF92AF92DF92CF9207
S11303509DD60F900F900F900F900F900F90E01676
S1130360F10649F78C81282F082E000C330B3F939C
S11303708F938B81282F082E000C330B3F938F9380
S113038086E191E09F938F938E010B5F1F4F1F9324
S11303900F937CD6B80180E41DDF0FB6F894DEBF5E
S11303A00FBECDBF6A960FB6F894DEBF0FBECDBFA9
S11303B0DF91CF911F910F91FF90EF90DF90CF903D
S11303C0BF90AF909F908F900895CF92DF92EF925D
S11303D0FF926B017C01A2D3C701B60195D483E2DD
S11303E0A6D3BDD3FF90EF90DF90CF900895CF9325
S11303F0C82F94D36C2F83E29AD3B1D3CF910895AD
S1130400CF93DF93CDB7DEB760970FB6F894DEBF16
S11304100FBECDBF8FEF8ABB87BB84BB11BA82B935
S1130420109261008FE180936400FE01319680E1B7
S1130430DF011D928A95E9F7ABDED5D067D37894B6
S113044033243394222423940F2EFAE2CF2EF1E0A6
S1130450DF2EF02D7BD169837A838B839C83EFE934
S1130460FFE03197F1F700C00000D0D16D837E83A7
S11304708F8398878FE99FE00197F1F700C0000010
S113048025D269877A878B879C87AFE9BFE011976C
S1130490F1F700C000007AD26D877E878F87988B32
S11304A0EFE9FFE03197F1F700C00000CFD24B0134
S11304B05C01CE0101967C0100E010E0D7014D9073
S11304C05D906D907D907D0120E030E046E952E43E
S11304D0C301B201FCD418162CF4F801E65DFE4FFA
S11304E020820DC020E030E04CE552E4C301B201AB
S11304F09FD3882324F4F801E65DFE4F10820F5F3A
S11305001F4F04301105D1F6839904C03394B5E02C
S11305103B1619F0E1E03E1206C02BBAF8E0F5BB39
S1130520332433945DC022E0321205C083E08BBBD8
S11305309CE095BB55C0A3E03A1205C0B7E0BBBB35
S1130540EEE0E5BB4DC0F4E03F124AC02FE02BBB08
S113055025BB46C0FC01E65DFE4F2081213009F435
S11305601ABA019684309105A9F780E090E0FC0165
S1130570E65DFE4F2081211106C08330910519F4F8
S11305808FEF8ABB0AC0FC01E65DFE4F208121305B
S113059021F001968430910551F7CE01019641DE98
S11305A0C501B40112DF9FEFA0E7B2E09150A04073
S11305B0B040E1F700C00000F6018081813031F4E1
S11305C0822D15DF47CF80E012DF44CF8181813057
S11305D0B9F382818130A1F383818130A1F7F0CF17
S11305E080E090E0B7CFCF93DF9300D000D0CDB7B9
S11305F0DEB719821A821B821C82F89487E886B9B6
S11306002FEF81EE94E0215080409040E1F700C04C
S1130610000080E487B98FE39CE90197F1F700C0FB
S11306200000369A3699FECF64B175B180E090E04F
S11306309CD369837A838B839C839FEF21EE84E030
S1130640915020408040E1F700C0000087E886B95F
S11306509FEF21EE84E0915020408040E1F700C0FC
S1130660000081E487B98FE39CE90197F1F700C0AA
S11306700000369A3699FECF64B175B180E090E0FF
S113068074D369837A838B839C839FEF21EE84E008
S1130690915020408040E1F700C0000087E886B90F
S11306A09FEF21EE84E0915020408040E1F700C0AC
S11306B0000082E487B98FE39CE90197F1F700C059
S11306C00000369A3699FECF64B175B180E090E0AF
S11306D04CD369837A838B839C839FEF21EE84E0E0
S11306E0915020408040E1F700C0000087E886B9BF
S11306F09FEF21EE84E0915020408040E1F700C05C
S1130700000083E487B98FE39CE90197F1F700C007
S11307100000369A3699FECF64B175B180E090E05E
S113072024D369837A838B839C839FEF21EE84E0B7
S1130730915020408040E1F700C0000078940F9071
S11307400F900F900F90DF91CF910895CF92DF9289
S1130750EF92FF92CF93DF9380E487B98FE891E023
S11307600197F1F700C00000369A3699FECFCAE02F
S1130770D0E0C12CD12C7601369A3699FECF64B1E3
S113078075B180E090E0F1D29B01AC01C701B601E4
S1130790EBD16B017C01219779F720E030E040E256
S11307A051E44AD29B01AC0160E070EC8FE794E421
S11307B043D220E030E040E85FE3D5D120E030E0F0
S11307C04AEF54E4CDD320E030E44CE156E434D293
S11307D087D324E339EA49E759E3C2D32FE03FEC56
S11307E04BE55BE3C1D19B01AC0160E070E080E8C4
S11307F09FE322D223E333E948E853E4B4D1DF9101
S1130800CF91FF90EF90DF90CF900895CF92DF9239
S1130810EF92FF92CF93DF9381E487B98FE891E061
S11308200197F1F700C00000369A3699FECFCAE06E
S1130830D0E0C12CD12C7601369A3699FECF64B122
S113084075B180E090E091D29B01AC01C701B60183
S11308508BD16B017C01219779F720E030E040E2F5
S113086051E4EAD19B01AC0160E070EC8FE794E4C1
S1130870E3D120E030E040E85FE375D120E030E0F0
S11308804AEF54E46DD320E030E44CE156E4D4D193
S113089027D324E339EA49E759E362D32FE03FEC55
S11308A04BE55BE361D19B01AC0160E070E080E863
S11308B09FE3C2D123E333E948E853E454D1DF9101
S11308C0CF91FF90EF90DF90CF900895CF92DF9279
S11308D0EF92FF92CF93DF9382E487B98FE891E0A0
S11308E00197F1F700C00000369A3699FECFCAE0AE
S11308F0D0E0C12CD12C7601369A3699FECF64B162
S113090075B180E090E031D29B01AC01C701B60122
S11309102BD16B017C01219779F720E030E040E294
S113092051E48AD19B01AC0160E070EC8FE794E460
S113093083D120E030E040E85FE315D120E030E0EF
S11309404AEF54E40DD320E030E44CE156E474D192
S1130950C7D224E339EA49E759E302D32FE03FEC55
S11309604BE55BE301D19B01AC0160E070E080E802
S11309709FE362D123E333E948E853E4F4D0DF9101
S1130980CF91FF90EF90DF90CF900895CF92DF92B8
S1130990EF92FF92CF93DF9383E487B98FE891E0DE
S11309A00197F1F700C00000369A3699FECFCAE0ED
S11309B0D0E0C12CD12C7601369A3699FECF64B1A1
S11309C075B180E090E0D1D19B01AC01C701B601C3
S11309D0CBD06B017C01219779F720E030E040E235
S11309E051E42AD19B01AC0160E070EC8FE794E400
S11309F023D120E030E040E85FE3B5D020E030E0F0
S1130A004AEF54E4ADD220E030E44CE156E414D192
S1130A1067D224E339EA49E759E3A2D22FE03FEC55
S1130A204BE55BE3A1D09B01AC0160E070E080E8A2
S1130A309FE302D123E333E948E853E494D0DF9100
S1130A40CF91FF90EF90DF90CF900895CF92DF92F7
S1130A50EF92FF92CF93DF9384E487B98FE891E01C
S1130A600197F1F700C00000369A3699FECFCAE02C
S1130A70D0E0C12CD12C7601369A3699FECF64B1E0
S1130A8075B180E090E071D19B01AC01C701B60162
S1130A906BD06B017C01219779F720E030E040E2D4
S1130AA051E4CAD09B01AC0160E070EC8FE794E4A0
S1130AB0C3D020E030E040E85FE355D020E030E0F0
S1130AC04AEF54E44DD220E030E44CE156E4B4D093
S1130AD007D224E339EA49E759E342D22FE03FEC55
S1130AE04BE55BE341D09B01AC0160E070E080E842
S1130AF09FE3A2D023E333E948E853E434D0DF9101
S1130B00CF91FF90EF90DF90CF900895F8948CE010
S1130B1080937000109271007894089584EA809311
S1130B207400E4E7F0E080818823ECF7089590E016
S1130B30880F991F8093730084EC80937400E4E71A
S1130B40F0E080818823ECF76093730084EC809359
S1130B507400E4E7F0E080818823ECF7089584E9E9
S1130B608093740008955058BB27AA270ED075C1EE
S1130B7066D130F06BD120F031F49F3F11F41EF4B4
S1130B805BC10EF4E095E7FB51C1E92F77D180F307
S1130B90BA17620773078407950718F071F49EF576
S1130BA08FC10EF4E0950B2EBA2FA02D0B01B901C5
S1130BB090010C01CA01A0011124FF27591B99F0CF
S1130BC0593F50F4503E68F11A16F040A22F232FDB
S1130BD0342F4427585FF3CF469537952795A7952B
S1130BE0F0405395C9F77EF41F16BA0B620B730BD2
S1130BF0840BBAF09150A1F0FF0FBB1F661F771F43
S1130C00881FC2F70EC0BA0F621F731F841F48F4F7
S1130C10879577956795B795F7959E3F08F0B3CF7D
S1130C209395880F08F09927EE0F97958795089567
S1130C30D9D008F481E008950CD00FC107D140F059
S1130C40FED030F021F45F3F19F0F0C0511139C1EA
S1130C50F3C014D198F39923C9F35523B1F3951B29
S1130C60550BBB27AA2762177307840738F09F5FC9
S1130C705F4F220F331F441FAA1FA9F333D00E2E38
S1130C803AF0E0E830D091505040E695001CCAF7A5
S1130C9029D0FE2F27D0660F771F881FBB1F26176A
S1130CA037074807AB07B0E809F0BB0B802DBF013D
S1130CB0FF2793585F4F2AF09E3F510568F0B6C056
S1130CC000C15F3FECF3983EDCF38695779567951A
S1130CD0B795F7959F5FC9F7880F911D96958795EE
S1130CE097F90895E1E0660F771F881FBB1F62170D
S1130CF073078407BA0720F0621B730B840BBA0BCB
S1130D00EE1F88F7E095089504D06894B111D9C016
S1130D100895BCD088F09F5790F0B92F9927B75108
S1130D20A0F0D1F0660F771F881F991F1AF0BA95AB
S1130D30C9F712C0B13081F0C3D0B1E00895C0C08A
S1130D40672F782F8827B85F39F0B93FCCF38695A1
S1130D5077956795B395D9F73EF4909580957095FE
S1130D6061957F4F8F4F9F4F0895E89409C097FB7B
S1130D703EF490958095709561957F4F8F4F9F4F6E
S1130D809923A9F0F92F96E9BB279395F6958795B2
S1130D9077956795B795F111F8CFFAF4BB0F11F475
S1130DA060FF1BC06F5F7F4F8F4F9F4F16C088231C
S1130DB011F096E911C0772321F09EE8872F762F52
S1130DC005C0662371F096E8862F70E060E02AF093
S1130DD09A95660F771F881FDAF7880F969587957F
S1130DE097F90895990F0008550FAA0BE0E8FEEF54
S1130DF016161706E807F907C0F012161306E407DB
S1130E00F50798F0621B730B840B950B39F40A26D3
S1130E1061F0232B242B252B21F408950A2609F4B1
S1130E20A140A6958FEF811D811D089597F99F67B5
S1130E3080E870E060E008959FEF80EC089500245E
S1130E400A941616170618060906089500240A942B
S1130E5012161306140605060895092E0394000CB1
S1130E6011F4882352F0BB0F40F4BF2B11F460FF40
S1130E7004C06F5F7F4F8F4F9F4F089557FD905869
S1130E80440F551F59F05F3F71F04795880F97FB4A
S1130E90991F61F09F3F79F0879508951216130604
S1130EA01406551FF2CF4695F1DF08C01616170633
S1130EB01806991FF1CF8695710561050894089568
S1130EC0E894BB2766277727CB0197F908958ADF33
S1130ED008F48FEF08950EF0A6C0AECF6894A6CFA5
S1130EE0D5DFC8F39923D1F3C6F3DF93CF931F93D0
S1130EF00F93FF92C92FDD2788232AF02197660FCD
S1130F00771F881FDAF720E030E040E85FEB9FE3CB
S1130F10883920F0803E30F021968F7725DEECE88A
S1130F20F0E003C021DEE9EBF0E08BD08B01BE01E1
S1130F30EC01FB2E6F5771097595771F880B990B80
S1130F4016DF28E132E741E35FE316D0AF2D9801C5
S1130F50AE01FF900F911F91CF91DF9116DE7DCFEF
S1130F600BD07BCF6CDF28F071DF18F0952309F0EC
S1130F705DCF62CF1124A5CF81DFA0F3959FD1F37C
S1130F80950F50E0551F629FF001729FBB27F00D33
S1130F90B11D639FAA27F00DB11DAA1F649F662788
S1130FA0B00DA11D661F829F2227B00DA11D621FD7
S1130FB0739FB00DA11D621F839FA00D611D221F91
S1130FC0749F3327A00D611D231F849F600D211D75
S1130FD0822F762F6A2F11249F5750408AF0E1F018
S1130FE088234AF0EE0FFF1FBB1F661F771F881F61
S1130FF091505040A9F79E3F510570F017CF61CF33
S11310005F3FECF3983EDCF3869577956795B7954B
S1131010F795E7959F5FC1F7FE2B880F911D969575
S1131020879597F908959F3F31F0915020F4879563
S113103077956795B795880F911D9695879597F93C
S11310400895DF93CF931F930F93FF92EF92DF9254
S11310507B018C01689405C0DA2EEF018DDFFE015F
S1131060E894A5912591359145915591AEF3EF0101
S11310708CDDFE019701A801DA9479F7DF90EF90F7
S1131080FF900F911F91CF91DF9108950F931F93BC
S1131090CF93DF93CDB7DEB72E970FB6F894DEBFAC
S11310A00FBECDBF0D891E8986E08C831A83098308
S11310B08FEF9FE79E838D83AE01475E5F4F6F89FD
S11310C0788DCE01019610D0EF81F885E00FF11FE5
S11310D010822E960FB6F894DEBF0FBECDBFDF91FF
S11310E0CF911F910F9108952F923F924F925F924B
S11310F06F927F928F929F92AF92BF92CF92DF9224
S1131100EF92FF920F931F93CF93DF93CDB7DEB788
S11311102B970FB6F894DEBF0FBECDBF6C017B01D9
S11311208A01FC0117821682838181FFBFC1CE012F
S113113001963C01F6019381F70193FD859193FF9C
S113114081917F01882309F4ADC1853239F493FD7F
S1131150859193FF81917F01853221F4B60190E05E
S1131160D6D1E8CF912C212C312CFFE1F315D8F006
S11311708B3279F038F4803279F08332A1F4232D64
S113118020611DC08D3261F0803369F4232D21600C
S113119016C0832D8260382EE32DE4603E2E2AC0D3
S11311A0F32DF8601DC037FC2DC020ED280F2A3028
S11311B040F08E32B9F436FC75C1232D2064322EF2
S11311C019C036FE06C08AE0989E200D1124922E86
S11311D011C0EAE02E9E200D1124222EF32DF06280
S11311E03F2E08C08C3621F4832D8068382E02C02F
S11311F0883641F4F70193FD859193FF81917F0136
S11312008111B3CF982F9F7D9554933028F40C5FB0
S11312101F4F9FE399830DC0833631F0833771F0FC
S1131220833509F055C020C0F801808189830E5FA1
S11312301F4F88248394912C530112C02801F2E09B
S11312404F0E511CF801A080B18036FE03C0692DF9
S113125070E002C06FEF7FEFC5014ED14C018201F7
S1131260F32DFF773F2E15C0280122E0420E511CBA
S1131270F801A080B18036FE03C0692D70E002C081
S11312806FEF7FEFC5012DD14C01F32DF0683F2E98
S1131290820133FC19C0822D90E088169906A0F4CF
S11312A0B60180E290E033D12A94F5CFF50137FC02
S11312B0859137FE81915F01B60190E028D121101C
S11312C02A9421E0821A91088114910479F7E1C0EB
S11312D0843611F0893639F5F80137FE07C060818C
S11312E07181828193810C5F1F4F08C0608171817D
S11312F0072E000C880B990B0E5F1F4FF32DFF7602
S11313003F2E97FF09C090958095709561957F4F0A
S11313108F4F9F4FF0683F2E2AE030E0A30133D176
S1131320882E861844C0853731F4232D2F7EB22EA3
S11313302AE030E025C0932D997FB92E8F36C1F075
S113134018F4883579F0AEC0803719F0883721F069
S1131350A9C0E92FE061BE2EB4FE0DC0FB2DF460E0
S1131360BF2E09C034FE0AC0292F2660B22E06C043
S113137028E030E005C020E130E002C020E132E0A6
S1131380F801B7FE07C060817181828193810C5F8F
S11313901F4F06C06081718180E090E00E5F1F4F97
S11313A0A301F1D0882E8618FB2DFF773F2E36FE41
S11313B00DC0232D2E7FA22E891458F434FE0BC0A9
S11313C032FC09C0832D8E7EA82E05C0B82CA32C18
S11313D003C0B82C01C0B92CA4FE0FC0FE01E80D57
S11313E0F11D8081803321F49A2D997EA92E09C0A4
S11313F0A2FE06C0B394B39404C08A2D867809F083
S1131400B394A3FC10C0A0FE06C0B21480F4280C50
S1131410922C9B180DC0B21458F4B60180E290E0EF
S113142076D0B394F8CFB21418F42B1802C0982CC9
S1131430212CA4FE0FC0B60180E390E068D0A2FE88
S113144016C0A1FC03C088E790E002C088E590E0E4
S1131450B6010CC08A2D867851F0A1FE02C08BE241
S113146001C080E2A7FC8DE2B60190E050D089145F
S113147030F4B60180E390E04AD09A94F8CF8A948D
S1131480F301E80DF11D8081B60190E040D0811098
S1131490F6CF222009F44ECEB60180E290E037D098
S11314A02A94F7CFF6018681978102C08FEF9FEFD0
S11314B02B960FB6F894DEBF0FBECDBFDF91CF9150
S11314C01F910F91FF90EF90DF90CF90BF90AF905E
S11314D09F908F907F906F905F904F903F902F9050
S11314E00895FC010590615070400110D8F7809573
S11314F090958E0F9F1F0895FC01615070400190DC
S11315000110D8F7809590958E0F9F1F08950F9323
S11315101F93CF93DF93FB01238121FD03C08FEF42
S11315209FEF2CC022FF16C046815781248135814C
S11315304217530744F4A081B1819D012F5F3F4FAF
S1131540318320838C93268137812F5F3F4F3783EC
S1131550268314C08B01EC01FB010084F185E02D8E
S11315600995892BE1F6D80116968D919C911797D0
S1131570019617969C938E931697CE01DF91CF9187
S11315801F910F910895FA01AA27283051F12031B3
S113159081F1E8946F936E7F6E5F7F4F8F4F9F4F03
S11315A0AF4FB1E03ED0B4E03CD0670F781F891F45
S11315B09A1FA11D680F791F8A1F911DA11D6A0F13
S11315C0711D811D911DA11D20D009F468943F91C6
S11315D02AE0269F11243019305D3193DEF6CF01C5
S11315E00895462F4770405D4193B3E00FD0C9F78B
S11315F0F6CF462F4F70405D4A3318F0495D31FDF8
S11316004052419302D0A9F7EACFB4E0A69597954A
S1131610879577956795BA95C9F700976105710520
S113162008959B01AC010A2E06945795479537956A
S11316302795BA95C9F7620F731F841F951FA01DC4
S10916400895F894FFCFA9
S113164625640050313A256443202050323A2564FB
S113165643202020200050333A2564432020503470
S10D16663A256443202020200000F0
S9030000FC
