S01700004D795265667265657A657261746F722E73726563E7
S113000072C000008EC000008CC000008AC00000D6
S113001077C1000086C0000084C0000082C00000D8
S113002080C000007EC000007CC000007AC00000D8
S113003078C0000076C0000074C0000072C00000E8
S113004070C000006EC000006CC000006AC00000F8
S113005068C0000066C0000064C0000062C0000008
S113006060C000005EC000005CC000005AC0000018
S113007058C0000056C0000054C0000052C0000028
S113008050C000004EC000004CC00000080000003A
S1130090BE922449123EABAAAA2ABECDCCCC4C3E79
S11300A000000080BEABAAAAAA3E00000000BF0068
S11300B00000803F0000000000084178D3BB438764
S11300C0D1133D190E3CC3BD4282AD2B3E68EC8278
S11300D076BED98FE1A93E4C80EFFFBE01C4FF7FFD
S11300E03F000000000011241FBECFEFD0E1DEBFAF
S11300F0CDBF11E0A0E0B1E0E0E4F4E100E00BBF2B
S113010002C007900D92A032B107D9F721E0A0E216
S1130110B1E001C01D92A432B207E1F708D10C94FA
S11301201E0A6ECFEFE9FFE03197F1F700C000003F
S113013094E093B9F5E0FA95F1F7000095E093B9EE
S113014095E09A95F1F7000088BBE5E0EA95F1F7B0
S1130150000082E083B908952FEF36E791E0215043
S113016030409040E1F700C0000013B825E02A9524
S1130170F1F7000091E093B935E03A95F1F700000A
S113018088BB85E08A95F1F7000086E083B908957D
S11301902FEF80E792E0215080409040E1F700C0CB
S11301A0000088E3D9DF25ED2A95F1F700008CE003
S11301B0D3DF85ED8A95F1F7000081E0CDDF8FE391
S11301C09FE10197F1F700C0000086E0C5CF0895D4
S11301D0EF92FF920F931F93CF93DF937B01082F2E
S11301E00068802FB9DFF7018081882389F0E70157
S11301F010E00E191F09CE01800F911F803991055F
S113020011F480ECA9DF89918DDF88818111F3CF0E
S1130210DF91CF911F910F91FF90EF900895CF92AE
S1130220DF92EF92FF920F931F93CF93DF93CDB79B
S1130230DEB765970FB6F894DEBF0FBECDBF198247
S11302401A821B821C82FE01359621E1DF011D9278
S11302502A95E9F77C018E010F5F1F4F6F01F701AB
S113026061917191819191917F0150D4D8016D93E5
S11302708D01AC15BD0599F78A811F928F938981F1
S11302801F928F9381E091E09F938F938E010B5F78
S11302901F4F1F930F93F7D5B80180E099DF81E1D9
S11302A0F80111928A95E9F78C811F928F938B81C3
S11302B01F928F9380E191E09F938F931F930F93ED
S11302C0E2D5B80180E484DF0FB6F894DEBF0FBE38
S11302D0CDBF65960FB6F894DEBF0FBECDBFDF91DC
S11302E0CF911F910F91FF90EF90DF90CF900895E1
S11302F00DD483E201C3089561E883E2FDC2089549
S11303001F920F920FB60F9211248F9380910001C8
S11303108F5F843019F08093000103C081E08093E3
S113032000018F910F900FBE0F901F901895CF93DF
S1130330DF93CDB7DEB764970FB6F894DEBF0FBE78
S1130340CDBF8FEF8ABB87BB84BB11BA82B9109231
S113035061008FE180936400FE01319680E1DF014A
S11303601D928A95E9F781E08BBB8EEF85BB10DF88
S11303709FD0BCD2B5D278940F2EF4E28F2EF1E048
S11303809F2EF02D772473940F2EF0E22F2EF1E0A0
S11303903F2EF02DC6D069837A838B839C8321D131
S11303A06D837E838F8398877BD169877A878B87D8
S11303B09C87D6D16D877E878F87988B31D2698B46
S11303C07A8B8B8B9C8BFE0131965F0100E211E0EE
S11303D0D501CD90DD90ED90FD905D0120E030E001
S11303E040EF52E4C701B6016FD4181624F4F801A3
S11303F0708282DF0BC020E030E044EB52E4C7019E
S1130400B60118D3882314F4D8011C920F5F1F4F30
S113041008151905E9F6F1018081813011F4D898A5
S1130420AB98D10111968C91813011F4D998AA9886
S1130430F1018281813011F4DA98A998D1011396DF
S11304408C91813011F4DB98A898F101808181119D
S113045006C080910001813011F4D89AAB9AD10181
S113046011968C91811106C080910001823011F4A3
S1130470D99AAA9AF1018281811106C08091000162
S1130480833011F4DA9AA99AD10113968C918111CF
S113049006C080910001843011F4DB9AA89ACE0141
S11304A00196BDDE69897A898B899C8921DF72CFA7
S11304B0CF93DF9300D000D0CDB7DEB719821A8274
S11304C01B821C8287E886B92FEF81EE94E02150CD
S11304D080409040E1F700C0000081E487B98FE3D9
S11304E09CE90197F1F700C00000369A3699FECFD7
S11304F064B175B180E090E035D369837A838B83EE
S11305009C839FEF21EE84E0915020408040E1F7EE
S113051000C000000F900F900F900F90DF91CF91CB
S11305200895CF92DF92EF92FF92CF93DF9387B13A
S113053017B88FE891E00197F1F700C00000369AF0
S11305403699FECFCAE0D0E0C12CD12C7601369A80
S11305503699FECF64B175B180E090E003D39B017E
S1130560AC01C701B60102D26B017C01219779F776
S113057020E030E040E251E461D29B01AC0160E054
S113058070EC8FE794E45AD220E030E040E85FE377
S1130590ECD120E030E04AEF54E4DFD320E030E453
S11305A04CE156E44BD299D324E339EA49E759E3C1
S11305B0D4D32FE03FEC4BE55BE3D8D19B01AC01F6
S11305C060E070E080E89FE339D223E333E948E850
S11305D053E4CBD1DF91CF91FF90EF90DF90CF9098
S11305E00895CF92DF92EF92FF92CF93DF9317B8E3
S11305F08FE891E00197F1F700C00000369A369930
S1130600FECFCAE0D0E0C12CD12C7601369A3699BF
S1130610FECF64B175B180E090E0A4D29B01AC013F
S1130620C701B601A3D16B017C01219779F720E0C2
S113063030E040E251E402D29B01AC0160E070EC96
S11306408FE794E4FBD120E030E040E85FE38DD114
S113065020E030E04AEF54E480D320E030E44CE181
S113066056E4ECD13AD324E339EA49E759E375D3A4
S11306702FE03FEC4BE55BE379D19B01AC0160E0FB
S113068070E080E89FE3DAD123E333E948E853E4F8
S11306906CD1DF91CF91FF90EF90DF90CF900895D0
S11306A0CF92DF92EF92FF92CF93DF9382E087B9EC
S11306B08FE891E00197F1F700C00000369A36996F
S11306C0FECFCAE0D0E0C12CD12C7601369A3699FF
S11306D0FECF64B175B180E090E044D29B01AC01DF
S11306E0C701B60143D16B017C01219779F720E062
S11306F030E040E251E4A2D19B01AC0160E070EC37
S11307008FE794E49BD120E030E040E85FE32DD113
S113071020E030E04AEF54E420D320E030E44CE120
S113072056E48CD1DAD224E339EA49E759E315D304
S11307302FE03FEC4BE55BE319D19B01AC0160E09A
S113074070E080E89FE37AD123E333E948E853E497
S11307500CD1DF91CF91FF90EF90DF90CF9008956F
S1130760CF92DF92EF92FF92CF93DF9382E087B92B
S11307708FE891E00197F1F700C00000369A3699AE
S1130780FECFCAE0D0E0C12CD12C7601369A36993E
S1130790FECF64B175B180E090E0E4D19B01AC017F
S11307A0C701B601E3D06B017C01219779F720E002
S11307B030E040E251E442D19B01AC0160E070ECD6
S11307C08FE794E43BD120E030E040E85FE3CDD014
S11307D020E030E04AEF54E4C0D220E030E44CE1C1
S11307E056E42CD17AD224E339EA49E759E3B5D265
S11307F02FE03FEC4BE55BE3B9D09B01AC0160E03B
S113080070E080E89FE31AD123E333E948E853E436
S1130810ACD0DF91CF91FF90EF90DF90CF9008950F
S1130820CF92DF92EF92FF92CF93DF9384E087B968
S11308308FE891E00197F1F700C00000369A3699ED
S1130840FECFCAE0D0E0C12CD12C7601369A36997D
S1130850FECF64B175B180E090E084D19B01AC011E
S1130860C701B60183D06B017C01219779F720E0A1
S113087030E040E251E4E2D09B01AC0160E070EC76
S11308808FE794E4DBD020E030E040E85FE36DD014
S113089020E030E04AEF54E460D220E030E44CE160
S11308A056E4CCD01AD224E339EA49E759E355D2C5
S11308B02FE03FEC4BE55BE359D09B01AC0160E0DA
S11308C070E080E89FE3BAD023E333E948E853E4D7
S11308D04CD0DF91CF91FF90EF90DF90CF900895AF
S11308E080E880936A0088E089BF08958CE0809353
S11308F0700010927100089594EA90937400E4E7F4
S1130900F0E0A1E7B0E090819923ECF79C91987F07
S11309109830C9F79AE09A95F1F700C090E0880FF3
S1130920991F8093730084E880937400E4E7F0E0F7
S1130930A1E7B0E080818823ECF78C91887F88312F
S1130940C9F76093730084E880937400E4E7F0E0EF
S1130950A1E7B0E080818823ECF78C91887F88320E
S1130960C9F784E98093740008955058BB27AA27D7
S11309700ED070C161D130F066D120F031F49F3FC8
S113098011F41EF456C10EF4E095E7FB4CC1E92FB7
S113099072D180F3BA17620773078407950718F0BA
S11309A071F49EF58AC10EF4E0950B2EBA2FA02D9A
S11309B00B01B90190010C01CA01A0011124FF2708
S11309C0591B99F0593F50F4503E68F11A16F04003
S11309D0A22F232F342F4427585FF3CF4695379502
S11309E02795A795F0405395C9F77EF41F16BA0BC7
S11309F0620B730B840BBAF09150A1F0FF0FBB1F75
S1130A00661F771F881FC2F70EC0BA0F621F731FBD
S1130A10841F48F4879577956795B795F7959E3F1A
S1130A2008F0B3CF9395880F08F09927EE0F9795A8
S1130A3087950895D4D008F481E008950CD00AC1B4
S1130A4002D140F0F9D030F021F45F3F19F0EBC04F
S1130A50511134C1EEC00FD198F39923C9F3552332
S1130A60B1F3951B550BBB27AA276217730784079D
S1130A7038F09F5F5F4F220F331F441FAA1FA9F353
S1130A8033D00E2E3AF0E0E830D091505040E69545
S1130A90001CCAF729D0FE2F27D0660F771F881FA6
S1130AA0BB1F261737074807AB07B0E809F0BB0B95
S1130AB0802DBF01FF2793585F4F2AF09E3F5105B9
S1130AC068F0B1C0FBC05F3FECF3983EDCF3869561
S1130AD077956795B795F7959F5FC9F7880F911D2F
S1130AE09695879597F90895E1E0660F771F881F1B
S1130AF0BB1F621773078407BA0720F0621B730BCE
S1130B00840BBA0BEE1F88F7E0950895BCD088F0EB
S1130B109F5790F0B92F9927B751A0F0D1F0660FE5
S1130B20771F881F991F1AF0BA95C9F712C0B13000
S1130B3081F0C3D0B1E00895C0C0672F782F882713
S1130B40B85F39F0B93FCCF3869577956795B3953F
S1130B50D9F73EF490958095709561957F4F8F4FAE
S1130B609F4F0895E89409C097FB3EF490958095B3
S1130B70709561957F4F8F4F9F4F9923A9F0F92F5F
S1130B8096E9BB279395F695879577956795B795DD
S1130B90F111F8CFFAF4BB0F11F460FF1BC06F5FC3
S1130BA07F4F8F4F9F4F16C0882311F096E911C0D5
S1130BB0772321F09EE8872F762F05C0662371F0F6
S1130BC096E8862F70E060E02AF09A95660F771F0A
S1130BD0881FDAF7880F9695879597F90895990FE6
S1130BE00008550FAA0BE0E8FEEF16161706E807F3
S1130BF0F907C0F012161306E407F50798F0621B14
S1130C00730B840B950B39F40A2661F0232B242BE8
S1130C10252B21F408950A2609F4A140A6958FEF07
S1130C20811D811D089597F99F6780E870E060E059
S1130C3008959FEF80EC089500240A941616170671
S1130C4018060906089500240A94121613061406B9
S1130C5005060895092E0394000C11F4882352F01C
S1130C60BB0F40F4BF2B11F460FF04C06F5F7F4FD4
S1130C708F4F9F4F089557FD9058440F551F59F0BB
S1130C805F3F71F04795880F97FB991F61F09F3F75
S1130C9079F087950895121613061406551FF2CF9E
S1130CA04695F1DF08C0161617061806991FF1CFEE
S1130CB086957105610508940895E894BB27662715
S1130CC07727CB0197F908958ADF08F48FEF089509
S1130CD00EF0A6C0AECF6894A6CFD5DFC8F3992393
S1130CE0D1F3C6F3DF93CF931F930F93FF92C92FD2
S1130CF0DD2788232AF02197660F771F881FDAF7EC
S1130D0020E030E040E85FEB9FE3883920F0803E4C
S1130D1030F021968F772ADEECE8F0E003C026DE7F
S1130D20E9EBF0E08BD08B01BE01EC01FB2E6F5799
S1130D3071097595771F880B990B16DF28E132E747
S1130D4041E35FE316D0AF2D9801AE01FF900F9100
S1130D501F91CF91DF911BDE7DCF0BD07BCF6CDF5A
S1130D6028F071DF18F0952309F05DCF62CF1124CC
S1130D70A5CF81DFA0F3959FD1F3950F50E0551FC8
S1130D80629FF001729FBB27F00DB11D639FAA27DC
S1130D90F00DB11DAA1F649F6627B00DA11D661F2B
S1130DA0829F2227B00DA11D621F739FB00DA11D4C
S1130DB0621F839FA00D611D221F749F3327A00D06
S1130DC0611D231F849F600D211D822F762F6A2FA2
S1130DD011249F5750408AF0E1F088234AF0EE0F27
S1130DE0FF1FBB1F661F771F881F91505040A9F734
S1130DF09E3F510570F017CF61CF5F3FECF3983EF3
S1130E00DCF3869577956795B795F795E7959F5F9A
S1130E10C1F7FE2B880F911D9695879597F9089534
S1130E209F3F31F0915020F4879577956795B7955A
S1130E30880F911D9695879597F90895DF93CF9321
S1130E401F930F93FF92EF92DF927B018C016894C2
S1130E5005C0DA2EEF018DDFFE01E894A5912591FE
S1130E60359145915591AEF3EF0191DDFE01970166
S1130E70A801DA9479F7DF90EF90FF900F911F911A
S1130E80CF91DF9108950F931F93CF93DF93CDB745
S1130E90DEB72E970FB6F894DEBF0FBECDBF0D8917
S1130EA01E8986E08C831A8309838FEF9FE79E83D4
S1130EB08D83AE01475E5F4F6F89788DCE010196B9
S1130EC010D0EF81F885E00FF11F10822E960FB637
S1130ED0F894DEBF0FBECDBFDF91CF911F910F916C
S1130EE008952F923F924F925F926F927F928F92CA
S1130EF09F92AF92BF92CF92DF92EF92FF920F93A5
S1130F001F93CF93DF93CDB7DEB72B970FB6F8942B
S1130F10DEBF0FBECDBF6C017B018A01FC011782CD
S1130F201682838181FFBFC1CE0101963C01F60187
S1130F309381F70193FD859193FF81917F0188232C
S1130F4009F4ADC1853239F493FD859193FF819104
S1130F507F01853221F4B60190E0D6D1E8CF912CFF
S1130F60212C312CFFE1F315D8F08B3279F038F4D1
S1130F70803279F08332A1F4232D20611DC08D329B
S1130F8061F0803369F4232D216016C0832D8260C3
S1130F90382EE32DE4603E2E2AC0F32DF8601DC0E8
S1130FA037FC2DC020ED280F2A3040F08E32B9F4E2
S1130FB036FC75C1232D2064322E19C036FE06C0BE
S1130FC08AE0989E200D1124922E11C0EAE02E9EF4
S1130FD0200D1124222EF32DF0623F2E08C08C36F2
S1130FE021F4832D8068382E02C0883641F4F7013D
S1130FF093FD859193FF81917F018111B3CF982F48
S11310009F7D9554933028F40C5F1F4F9FE3998381
S11310100DC0833631F0833771F0833509F055C044
S113102020C0F801808189830E5F1F4F8824839438
S1131030912C530112C02801F2E04F0E511CF8010B
S1131040A080B18036FE03C0692D70E002C06FEF4E
S11310507FEFC5014ED14C018201F32DFF773F2E66
S113106015C0280122E0420E511CF801A080B18075
S113107036FE03C0692D70E002C06FEF7FEFC5013B
S11310802DD14C01F32DF0683F2E820133FC19C0A1
S1131090822D90E088169906A0F4B60180E290E0D3
S11310A033D12A94F5CFF50137FC859137FE819130
S11310B05F01B60190E028D121102A9421E0821A20
S11310C091088114910479F7E1C0843611F08936CE
S11310D039F5F80137FE07C06081718182819381FF
S11310E00C5F1F4F08C060817181072E000C880BB4
S11310F0990B0E5F1F4FF32DFF763F2E97FF09C00C
S113110090958095709561957F4F8F4F9F4FF068B4
S11311103F2E2AE030E0A30133D1882E861844C044
S1131120853731F4232D2F7EB22E2AE030E025C0FE
S1131130932D997FB92E8F36C1F018F4883579F044
S1131140AEC0803719F0883721F0A9C0E92FE061DB
S1131150BE2EB4FE0DC0FB2DF460BF2E09C034FEBC
S11311600AC0292F2660B22E06C028E030E005C050
S113117020E130E002C020E132E0F801B7FE07C010
S113118060817181828193810C5F1F4F06C06081F1
S1131190718180E090E00E5F1F4FA301F1D0882E93
S11311A08618FB2DFF773F2E36FE0DC0232D2E7F94
S11311B0A22E891458F434FE0BC032FC09C0832DCE
S11311C08E7EA82E05C0B82CA32C03C0B82C01C059
S11311D0B92CA4FE0FC0FE01E80DF11D80818033FF
S11311E021F49A2D997EA92E09C0A2FE06C0B394BB
S11311F0B39404C08A2D867809F0B394A3FC10C07C
S1131200A0FE06C0B21480F4280C922C9B180DC0CA
S1131210B21458F4B60180E290E076D0B394F8CFDB
S1131220B21418F42B1802C0982C212CA4FE0FC061
S1131230B60180E390E068D0A2FE16C0A1FC03C012
S113124088E790E002C088E590E0B6010CC08A2DE2
S1131250867851F0A1FE02C08BE201C080E2A7FCB7
S11312608DE2B60190E050D0891430F4B60180E3E9
S113127090E04AD09A94F8CF8A94F301E80DF11DD6
S11312808081B60190E040D08110F6CF222009F48D
S11312904ECEB60180E290E037D02A94F7CFF60123
S11312A08681978102C08FEF9FEF2B960FB6F8943B
S11312B0DEBF0FBECDBFDF91CF911F910F91FF9085
S11312C0EF90DF90CF90BF90AF909F908F907F90E2
S11312D06F905F904F903F902F900895FC01059080
S11312E0615070400110D8F7809590958E0F9F1F24
S11312F00895FC016150704001900110D8F7809569
S113130090958E0F9F1F08950F931F93CF93DF9394
S1131310FB01238121FD03C08FEF9FEF2CC022FF2F
S113132016C046815781248135814217530744F4FE
S1131330A081B1819D012F5F3F4F318320838C9326
S1131340268137812F5F3F4F3783268314C08B015B
S1131350EC01FB010084F185E02D0995892BE1F670
S1131360D80116968D919C911797019617969C9388
S11313708E931697CE01DF91CF911F910F9108950F
S1131380FA01AA27283051F1203181F1E8946F93B2
S11313906E7F6E5F7F4F8F4F9F4FAF4FB1E03ED058
S11313A0B4E03CD0670F781F891F9A1FA11D680FF6
S11313B0791F8A1F911DA11D6A0F711D811D911D29
S11313C0A11D20D009F468943F912AE0269F11249E
S11313D03019305D3193DEF6CF010895462F477002
S11313E0405D4193B3E00FD0C9F7F6CF462F4F705D
S11313F0405D4A3318F0495D31FD4052419302D0BB
S1131400A9F7EACFB4E0A695979587957795679560
S1131410BA95C9F700976105710508959B01AC0160
S11314200A2E06945795479537952795BA95C9F787
S1131430620F731F841F951FA01D0895F894FFCF9A
S11314400150313A256443202050323A2564430048
S113145050333A256443202050343A256443000035
S9030000FC
