S01C00004D79526566726967657261746F725F536C6176652E73726563FC
S113000045C0000060C000005EC000005CC000008D
S11300105AC0000058C0000056C0000054C0000080
S113002052C0000050C000004EC000004CC0000090
S11300304AC0000048C0000046C0000044C00000A0
S113004042C0000040C000003EC000003CC00000B0
S11300503AC0000038C0000036C0000034C00000C0
S113006032C0000030C000002EC000002CC00000D0
S11300702AC0000047C1000026C0000024C00000C0
S113008022C00000A3C100001EC0000011241FBE36
S1130090CFEFD0E1DEBFCDBF11E0A0E0B1E0E4EAF4
S11300A0FAE000E00BBF02C007900D92A033B10745
S11300B0D9F721E0A0E3B1E001C01D92A533B20756
S11300C0E1F7DFD1EDC49CCFEFE9FFE03197F1F721
S11300D000C0000091E093B9F5E0FA95F1F7000053
S11300E095E093B995E09A95F1F7000088BBE5E0B7
S11300F0EA95F1F7000082E083B908952FEF36E71F
S113010091E0215030409040E1F700C0000013B866
S113011025E02A95F1F7000094E093B935E03A958B
S1130120F1F7000088BB85E08A95F1F7000083E0D1
S113013083B908952FEF80E792E0215080409040EA
S1130140E1F700C0000088E3D9DF25ED2A95F1F737
S113015000008CE0D3DF85ED8A95F1F7000081E0A3
S1130160CDDF8FE39FE10197F1F700C0000086E047
S1130170C5CF0895EF92FF920F931F93CF93DF9310
S11301807B01082F0068802FB9DFF7018081882365
S113019089F0E70110E00E191F09CE01800F911FAD
S11301A08039910511F480ECA9DF89918DDF888174
S11301B08111F3CFDF91CF911F910F91FF90EF90B9
S11301C00895CF92DF92EF92FF920F931F93CF93F4
S11301D0DF936B01C42F082F0068802F8FDF8C2FD3
S11301E090E00197A2F07601EC0EF11CE60110E01C
S11301F00C191D09CE01800F911F8039910511F44E
S113020080EC7CDF899160DFCE15DF0599F7DF9103
S1130210CF911F910F91FF90EF90DF90CF900895B1
S1130220CF92DF92EF92FF920F931F93CF93DF93BE
S1130230CDB7DEB7E7970FB6F894DEBF0FBECDBFDC
S1130240F82EE62E8E010F5F1F4F81E1F801119207
S11302508A95E9F781E1EDE0F1E0DE015296019043
S11302600D928A95E1F781E1EEE1F1E0DE019396EA
S113027001900D928A95E1F71CAA1DAA1EAA1FAA35
S1130280CF2C0F2C000CDD08DF92FF9288E091E068
S11302909F938F93CE01C4969F938F9326D1DF9221
S11302A0FF9280E091E09F938F931F930F931DD152
S11302B0B80180E05FDF41E06BE071E08FE081DF57
S11302C00FB6F894DEBF0FBECDBF91E0E91206C0B1
S11302D0BE016E5E7F4F80E44DDF05C0BE016D5DE3
S11302E07F4F80E447DFE7960FB6F894DEBF0FBE7A
S11302F0CDBFDF91CF911F910F91FF90EF90DF90D1
S1130300CF9008951F920F920FB60F9211240BB63F
S11303100F922F938F939F93EF93FF9380913001CC
S113032090913101843F9140B4F4E2E6F0E0908191
S113033081E0892780838DEC9FEF909389008093DF
S113034088008091300190913101019690933101A0
S1130350809330012FC08091300190913101843F0E
S11303609140BCF08091300190913101883E9340DE
S113037084F48DEC9FEF90938900809388008091A2
S113038030019091310101969093310180933001B5
S113039011C08091300190913101883E934051F415
S11303A010923101109230018DEC9FEF90938900EF
S11303B080938800FF91EF919F918F912F910F90DF
S11303C00BBE0F900FBE0F901F9018951F920F92A7
S11303D00FB60F9211248F9380917100803621F40F
S11303E085EC809374002DC080917100803879F47D
S11303F08091320181110BC080917300809334018C
S113040081E08093320185EC809374001AC080915E
S11304107100803879F480913201813059F48091EF
S113042073008093330182E08093320185EC8093E2
S1130430740007C080917100803A19F485EC8093B0
S113044074008F910F900FBE0F901F901895F89421
S113045086E48093720085E4809374007894089510
S113046010928B0083E080938A0010928C0084E0C9
S113047080937D008DEC9FEF90938900809388009A
S113048008958FEF8ABB87BB84BB11BA82B980936E
S113049061008FE180936400E3DF4CDED8DF789461
S11304A010926200C0E0D0E00DE710E06894DD2413
S11304B0D2F80F2EF2E6EF2EF12CF02D80913201BE
S11304C0823031F4D0913401C09133011092320161
S11304D0C11105C0F8011082F701108202C0F801B1
S11304E0D0826C2F8D2F9CDEE9CF0F931F93CF9377
S11304F0DF93CDB7DEB72E970FB6F894DEBF0FBEED
S1130500CDBF0D891E8986E08C831A8309838FEF02
S11305109FE79E838D83AE01475E5F4F6F89788D21
S1130520CE01019610D0EF81F885E00FF11F108203
S11305302E960FB6F894DEBF0FBECDBFDF91CF91DC
S11305401F910F9108952F923F924F925F926F9255
S11305507F928F929F92AF92BF92CF92DF92EF924F
S1130560FF920F931F93CF93DF93CDB7DEB72B97F3
S11305700FB6F894DEBF0FBECDBF6C017B018A01BC
S1130580FC0117821682838181FFBFC1CE010196CF
S11305903C01F6019381F70193FD859193FF8191CD
S11305A07F01882309F4ADC1853239F493FD859127
S11305B093FF81917F01853221F4B60190E0D6D179
S11305C0E8CF912C212C312CFFE1F315D8F08B329C
S11305D079F038F4803279F08332A1F4232D20614C
S11305E01DC08D3261F0803369F4232D216016C063
S11305F0832D8260382EE32DE4603E2E2AC0F32D35
S1130600F8601DC037FC2DC020ED280F2A3040F0C3
S11306108E32B9F436FC75C1232D2064322E19C0F4
S113062036FE06C08AE0989E200D1124922E11C039
S1130630EAE02E9E200D1124222EF32DF0623F2E8F
S113064008C08C3621F4832D8068382E02C0883689
S113065041F4F70193FD859193FF81917F0181110D
S1130660B3CF982F9F7D9554933028F40C5F1F4F80
S11306709FE399830DC0833631F0833771F083355E
S113068009F055C020C0F801808189830E5F1F4F97
S113069088248394912C530112C02801F2E04F0E58
S11306A0511CF801A080B18036FE03C0692D70E0B2
S11306B002C06FEF7FEFC5014ED14C018201F32DD3
S11306C0FF773F2E15C0280122E0420E511CF8018D
S11306D0A080B18036FE03C0692D70E002C06FEFC8
S11306E07FEFC5012DD14C01F32DF0683F2E82011F
S11306F033FC19C0822D90E088169906A0F4B60147
S113070080E290E033D12A94F5CFF50137FC85914E
S113071037FE81915F01B60190E028D121102A941F
S113072021E0821A91088114910479F7E1C084369A
S113073011F0893639F5F80137FE07C060817181FF
S1130740828193810C5F1F4F08C060817181072EE5
S1130750000C880B990B0E5F1F4FF32DFF763F2E75
S113076097FF09C090958095709561957F4F8F4F45
S11307709F4FF0683F2E2AE030E0A30133D1882E4A
S1130780861844C0853731F4232D2F7EB22E2AE0FB
S113079030E025C0932D997FB92E8F36C1F018F41F
S11307A0883579F0AEC0803719F0883721F0A9C0B8
S11307B0E92FE061BE2EB4FE0DC0FB2DF460BF2E08
S11307C009C034FE0AC0292F2660B22E06C028E0D4
S11307D030E005C020E130E002C020E132E0F80161
S11307E0B7FE07C060817181828193810C5F1F4FC6
S11307F006C06081718180E090E00E5F1F4FA3010D
S1130800F1D0882E8618FB2DFF773F2E36FE0DC0C3
S1130810232D2E7FA22E891458F434FE0BC032FCF3
S113082009C0832D8E7EA82E05C0B82CA32C03C02E
S1130830B82C01C0B92CA4FE0FC0FE01E80DF11DB7
S11308408081803321F49A2D997EA92E09C0A2FEBD
S113085006C0B394B39404C08A2D867809F0B39487
S1130860A3FC10C0A0FE06C0B21480F4280C922C85
S11308709B180DC0B21458F4B60180E290E076D013
S1130880B394F8CFB21418F42B1802C0982C212C6E
S1130890A4FE0FC0B60180E390E068D0A2FE16C0AB
S11308A0A1FC03C088E790E002C088E590E0B601AF
S11308B00CC08A2D867851F0A1FE02C08BE201C0E3
S11308C080E2A7FC8DE2B60190E050D0891430F4A8
S11308D0B60180E390E04AD09A94F8CF8A94F30169
S11308E0E80DF11D8081B60190E040D08110F6CF73
S11308F0222009F44ECEB60180E290E037D02A944B
S1130900F7CFF6018681978102C08FEF9FEF2B9678
S11309100FB6F894DEBF0FBECDBFDF91CF911F910C
S11309200F91FF90EF90DF90CF90BF90AF909F908A
S11309308F907F906F905F904F903F902F9008958D
S1130940FC010590615070400110D8F78095909596
S11309508E0F9F1F0895FC0161507040019001109B
S1130960D8F7809590958E0F9F1F08950F931F932E
S1130970CF93DF93FB01238121FD03C08FEF9FEF12
S11309802CC022FF16C0468157812481358142172D
S1130990530744F4A081B1819D012F5F3F4F318300
S11309A020838C93268137812F5F3F4F37832683A3
S11309B014C08B01EC01FB010084F185E02D099545
S11309C0892BE1F6D80116968D919C911797019683
S11309D017969C938E931697CE01DF91CF911F911A
S11309E00F910895FA01AA27283051F1203181F19D
S11309F0E8946F936E7F6E5F7F4F8F4F9F4FAF4F23
S1130A00B1E03ED0B4E03CD0670F781F891F9A1F35
S1130A10A11D680F791F8A1F911DA11D6A0F711DE9
S1130A20811D911DA11D20D009F468943F912AE0F5
S1130A30269F11243019305D3193DEF6CF010895DD
S1130A40462F4770405D4193B3E00FD0C9F7F6CF0E
S1130A50462F4F70405D4A3318F0495D31FD4052D6
S1130A60419302D0A9F7EACFB4E0A695979587956C
S1130A7077956795BA95C9F700976105710508954B
S1130A809B01AC010A2E06945795479537952795F7
S1130A90BA95C9F7620F731F841F951FA01D08958F
S1070AA0F894FFCFF4
S1130AA4496E736964653A202564004300574152D2
S1130AB44E494E47204F5645524845415400202044
S1130AC4202020202020202020202020202000005E
S9030000FC
